{
  "_format": "hh-sol-artifact-1",
  "contractName": "NeonWarriors",
  "sourceName": "contracts/NeonWarriors.sol",
  "abi": [
    {
      "inputs": [
        {
          "internalType": "string",
          "name": "_metadataURI",
          "type": "string"
        }
      ],
      "stateMutability": "nonpayable",
      "type": "constructor"
    },
    {
      "anonymous": false,
      "inputs": [
        {
          "indexed": true,
          "internalType": "address",
          "name": "account",
          "type": "address"
        },
        {
          "indexed": true,
          "internalType": "address",
          "name": "operator",
          "type": "address"
        },
        {
          "indexed": false,
          "internalType": "bool",
          "name": "approved",
          "type": "bool"
        }
      ],
      "name": "ApprovalForAll",
      "type": "event"
    },
    {
      "anonymous": false,
      "inputs": [
        {
          "indexed": false,
          "internalType": "string",
          "name": "battleName",
          "type": "string"
        },
        {
          "indexed": true,
          "internalType": "address",
          "name": "winner",
          "type": "address"
        },
        {
          "indexed": true,
          "internalType": "address",
          "name": "loser",
          "type": "address"
        }
      ],
      "name": "BattleEnded",
      "type": "event"
    },
    {
      "anonymous": false,
      "inputs": [
        {
          "indexed": true,
          "internalType": "string",
          "name": "battleName",
          "type": "string"
        },
        {
          "indexed": true,
          "internalType": "bool",
          "name": "isFirstMove",
          "type": "bool"
        }
      ],
      "name": "BattleMove",
      "type": "event"
    },
    {
      "anonymous": false,
      "inputs": [
        {
          "indexed": false,
          "internalType": "string",
          "name": "battleName",
          "type": "string"
        },
        {
          "indexed": true,
          "internalType": "address",
          "name": "player1",
          "type": "address"
        },
        {
          "indexed": true,
          "internalType": "address",
          "name": "player2",
          "type": "address"
        }
      ],
      "name": "NewBattle",
      "type": "event"
    },
    {
      "anonymous": false,
      "inputs": [
        {
          "indexed": true,
          "internalType": "address",
          "name": "owner",
          "type": "address"
        },
        {
          "indexed": false,
          "internalType": "uint256",
          "name": "id",
          "type": "uint256"
        },
        {
          "indexed": false,
          "internalType": "uint256",
          "name": "attackStrength",
          "type": "uint256"
        },
        {
          "indexed": false,
          "internalType": "uint256",
          "name": "defenseStrength",
          "type": "uint256"
        }
      ],
      "name": "NewGameToken",
      "type": "event"
    },
    {
      "anonymous": false,
      "inputs": [
        {
          "indexed": true,
          "internalType": "address",
          "name": "owner",
          "type": "address"
        },
        {
          "indexed": false,
          "internalType": "string",
          "name": "name",
          "type": "string"
        }
      ],
      "name": "NewPlayer",
      "type": "event"
    },
    {
      "anonymous": false,
      "inputs": [
        {
          "indexed": true,
          "internalType": "address",
          "name": "previousOwner",
          "type": "address"
        },
        {
          "indexed": true,
          "internalType": "address",
          "name": "newOwner",
          "type": "address"
        }
      ],
      "name": "OwnershipTransferred",
      "type": "event"
    },
    {
      "anonymous": false,
      "inputs": [
        {
          "indexed": false,
          "internalType": "address[2]",
          "name": "damagedPlayers",
          "type": "address[2]"
        }
      ],
      "name": "RoundEnded",
      "type": "event"
    },
    {
      "anonymous": false,
      "inputs": [
        {
          "indexed": true,
          "internalType": "address",
          "name": "operator",
          "type": "address"
        },
        {
          "indexed": true,
          "internalType": "address",
          "name": "from",
          "type": "address"
        },
        {
          "indexed": true,
          "internalType": "address",
          "name": "to",
          "type": "address"
        },
        {
          "indexed": false,
          "internalType": "uint256[]",
          "name": "ids",
          "type": "uint256[]"
        },
        {
          "indexed": false,
          "internalType": "uint256[]",
          "name": "values",
          "type": "uint256[]"
        }
      ],
      "name": "TransferBatch",
      "type": "event"
    },
    {
      "anonymous": false,
      "inputs": [
        {
          "indexed": true,
          "internalType": "address",
          "name": "operator",
          "type": "address"
        },
        {
          "indexed": true,
          "internalType": "address",
          "name": "from",
          "type": "address"
        },
        {
          "indexed": true,
          "internalType": "address",
          "name": "to",
          "type": "address"
        },
        {
          "indexed": false,
          "internalType": "uint256",
          "name": "id",
          "type": "uint256"
        },
        {
          "indexed": false,
          "internalType": "uint256",
          "name": "value",
          "type": "uint256"
        }
      ],
      "name": "TransferSingle",
      "type": "event"
    },
    {
      "anonymous": false,
      "inputs": [
        {
          "indexed": false,
          "internalType": "string",
          "name": "value",
          "type": "string"
        },
        {
          "indexed": true,
          "internalType": "uint256",
          "name": "id",
          "type": "uint256"
        }
      ],
      "name": "URI",
      "type": "event"
    },
    {
      "inputs": [],
      "name": "CYBER_REAPER",
      "outputs": [
        {
          "internalType": "uint256",
          "name": "",
          "type": "uint256"
        }
      ],
      "stateMutability": "view",
      "type": "function"
    },
    {
      "inputs": [],
      "name": "DATA_WRAITH",
      "outputs": [
        {
          "internalType": "uint256",
          "name": "",
          "type": "uint256"
        }
      ],
      "stateMutability": "view",
      "type": "function"
    },
    {
      "inputs": [],
      "name": "GLITCH_MONARCH",
      "outputs": [
        {
          "internalType": "uint256",
          "name": "",
          "type": "uint256"
        }
      ],
      "stateMutability": "view",
      "type": "function"
    },
    {
      "inputs": [],
      "name": "GRID_STALKER",
      "outputs": [
        {
          "internalType": "uint256",
          "name": "",
          "type": "uint256"
        }
      ],
      "stateMutability": "view",
      "type": "function"
    },
    {
      "inputs": [],
      "name": "MAX_ATTACK_DEFEND_STRENGTH",
      "outputs": [
        {
          "internalType": "uint256",
          "name": "",
          "type": "uint256"
        }
      ],
      "stateMutability": "view",
      "type": "function"
    },
    {
      "inputs": [],
      "name": "NEON_PHOENIX",
      "outputs": [
        {
          "internalType": "uint256",
          "name": "",
          "type": "uint256"
        }
      ],
      "stateMutability": "view",
      "type": "function"
    },
    {
      "inputs": [],
      "name": "VOID_RUNNER",
      "outputs": [
        {
          "internalType": "uint256",
          "name": "",
          "type": "uint256"
        }
      ],
      "stateMutability": "view",
      "type": "function"
    },
    {
      "inputs": [
        {
          "internalType": "uint8",
          "name": "_choice",
          "type": "uint8"
        },
        {
          "internalType": "string",
          "name": "_battleName",
          "type": "string"
        }
      ],
      "name": "attackOrDefendChoice",
      "outputs": [],
      "stateMutability": "nonpayable",
      "type": "function"
    },
    {
      "inputs": [
        {
          "internalType": "address",
          "name": "account",
          "type": "address"
        },
        {
          "internalType": "uint256",
          "name": "id",
          "type": "uint256"
        }
      ],
      "name": "balanceOf",
      "outputs": [
        {
          "internalType": "uint256",
          "name": "",
          "type": "uint256"
        }
      ],
      "stateMutability": "view",
      "type": "function"
    },
    {
      "inputs": [
        {
          "internalType": "address[]",
          "name": "accounts",
          "type": "address[]"
        },
        {
          "internalType": "uint256[]",
          "name": "ids",
          "type": "uint256[]"
        }
      ],
      "name": "balanceOfBatch",
      "outputs": [
        {
          "internalType": "uint256[]",
          "name": "",
          "type": "uint256[]"
        }
      ],
      "stateMutability": "view",
      "type": "function"
    },
    {
      "inputs": [],
      "name": "baseURI",
      "outputs": [
        {
          "internalType": "string",
          "name": "",
          "type": "string"
        }
      ],
      "stateMutability": "view",
      "type": "function"
    },
    {
      "inputs": [
        {
          "internalType": "string",
          "name": "",
          "type": "string"
        }
      ],
      "name": "battleInfo",
      "outputs": [
        {
          "internalType": "uint256",
          "name": "",
          "type": "uint256"
        }
      ],
      "stateMutability": "view",
      "type": "function"
    },
    {
      "inputs": [
        {
          "internalType": "uint256",
          "name": "",
          "type": "uint256"
        }
      ],
      "name": "battles",
      "outputs": [
        {
          "internalType": "enum NeonWarriors.BattleStatus",
          "name": "battleStatus",
          "type": "uint8"
        },
        {
          "internalType": "bytes32",
          "name": "battleHash",
          "type": "bytes32"
        },
        {
          "internalType": "string",
          "name": "name",
          "type": "string"
        },
        {
          "internalType": "address",
          "name": "winner",
          "type": "address"
        }
      ],
      "stateMutability": "view",
      "type": "function"
    },
    {
      "inputs": [
        {
          "internalType": "string",
          "name": "_name",
          "type": "string"
        }
      ],
      "name": "createBattle",
      "outputs": [
        {
          "components": [
            {
              "internalType": "enum NeonWarriors.BattleStatus",
              "name": "battleStatus",
              "type": "uint8"
            },
            {
              "internalType": "bytes32",
              "name": "battleHash",
              "type": "bytes32"
            },
            {
              "internalType": "string",
              "name": "name",
              "type": "string"
            },
            {
              "internalType": "address[2]",
              "name": "players",
              "type": "address[2]"
            },
            {
              "internalType": "uint8[2]",
              "name": "moves",
              "type": "uint8[2]"
            },
            {
              "internalType": "address",
              "name": "winner",
              "type": "address"
            }
          ],
          "internalType": "struct NeonWarriors.Battle",
          "name": "",
          "type": "tuple"
        }
      ],
      "stateMutability": "nonpayable",
      "type": "function"
    },
    {
      "inputs": [
        {
          "internalType": "string",
          "name": "_name",
          "type": "string"
        }
      ],
      "name": "createRandomGameToken",
      "outputs": [],
      "stateMutability": "nonpayable",
      "type": "function"
    },
    {
      "inputs": [
        {
          "internalType": "uint256",
          "name": "id",
          "type": "uint256"
        }
      ],
      "name": "exists",
      "outputs": [
        {
          "internalType": "bool",
          "name": "",
          "type": "bool"
        }
      ],
      "stateMutability": "view",
      "type": "function"
    },
    {
      "inputs": [
        {
          "internalType": "uint256",
          "name": "",
          "type": "uint256"
        }
      ],
      "name": "gameTokens",
      "outputs": [
        {
          "internalType": "string",
          "name": "name",
          "type": "string"
        },
        {
          "internalType": "uint256",
          "name": "id",
          "type": "uint256"
        },
        {
          "internalType": "uint256",
          "name": "attackStrength",
          "type": "uint256"
        },
        {
          "internalType": "uint256",
          "name": "defenseStrength",
          "type": "uint256"
        }
      ],
      "stateMutability": "view",
      "type": "function"
    },
    {
      "inputs": [],
      "name": "getAllBattles",
      "outputs": [
        {
          "components": [
            {
              "internalType": "enum NeonWarriors.BattleStatus",
              "name": "battleStatus",
              "type": "uint8"
            },
            {
              "internalType": "bytes32",
              "name": "battleHash",
              "type": "bytes32"
            },
            {
              "internalType": "string",
              "name": "name",
              "type": "string"
            },
            {
              "internalType": "address[2]",
              "name": "players",
              "type": "address[2]"
            },
            {
              "internalType": "uint8[2]",
              "name": "moves",
              "type": "uint8[2]"
            },
            {
              "internalType": "address",
              "name": "winner",
              "type": "address"
            }
          ],
          "internalType": "struct NeonWarriors.Battle[]",
          "name": "",
          "type": "tuple[]"
        }
      ],
      "stateMutability": "view",
      "type": "function"
    },
    {
      "inputs": [],
      "name": "getAllPlayerTokens",
      "outputs": [
        {
          "components": [
            {
              "internalType": "string",
              "name": "name",
              "type": "string"
            },
            {
              "internalType": "uint256",
              "name": "id",
              "type": "uint256"
            },
            {
              "internalType": "uint256",
              "name": "attackStrength",
              "type": "uint256"
            },
            {
              "internalType": "uint256",
              "name": "defenseStrength",
              "type": "uint256"
            }
          ],
          "internalType": "struct NeonWarriors.GameToken[]",
          "name": "",
          "type": "tuple[]"
        }
      ],
      "stateMutability": "view",
      "type": "function"
    },
    {
      "inputs": [],
      "name": "getAllPlayers",
      "outputs": [
        {
          "components": [
            {
              "internalType": "address",
              "name": "playerAddress",
              "type": "address"
            },
            {
              "internalType": "string",
              "name": "playerName",
              "type": "string"
            },
            {
              "internalType": "uint256",
              "name": "playerMana",
              "type": "uint256"
            },
            {
              "internalType": "uint256",
              "name": "playerHealth",
              "type": "uint256"
            },
            {
              "internalType": "bool",
              "name": "inBattle",
              "type": "bool"
            }
          ],
          "internalType": "struct NeonWarriors.Player[]",
          "name": "",
          "type": "tuple[]"
        }
      ],
      "stateMutability": "view",
      "type": "function"
    },
    {
      "inputs": [
        {
          "internalType": "string",
          "name": "_name",
          "type": "string"
        }
      ],
      "name": "getBattle",
      "outputs": [
        {
          "components": [
            {
              "internalType": "enum NeonWarriors.BattleStatus",
              "name": "battleStatus",
              "type": "uint8"
            },
            {
              "internalType": "bytes32",
              "name": "battleHash",
              "type": "bytes32"
            },
            {
              "internalType": "string",
              "name": "name",
              "type": "string"
            },
            {
              "internalType": "address[2]",
              "name": "players",
              "type": "address[2]"
            },
            {
              "internalType": "uint8[2]",
              "name": "moves",
              "type": "uint8[2]"
            },
            {
              "internalType": "address",
              "name": "winner",
              "type": "address"
            }
          ],
          "internalType": "struct NeonWarriors.Battle",
          "name": "",
          "type": "tuple"
        }
      ],
      "stateMutability": "view",
      "type": "function"
    },
    {
      "inputs": [
        {
          "internalType": "string",
          "name": "_battleName",
          "type": "string"
        }
      ],
      "name": "getBattleMoves",
      "outputs": [
        {
          "internalType": "uint256",
          "name": "P1Move",
          "type": "uint256"
        },
        {
          "internalType": "uint256",
          "name": "P2Move",
          "type": "uint256"
        }
      ],
      "stateMutability": "view",
      "type": "function"
    },
    {
      "inputs": [
        {
          "internalType": "address",
          "name": "addr",
          "type": "address"
        }
      ],
      "name": "getPlayer",
      "outputs": [
        {
          "components": [
            {
              "internalType": "address",
              "name": "playerAddress",
              "type": "address"
            },
            {
              "internalType": "string",
              "name": "playerName",
              "type": "string"
            },
            {
              "internalType": "uint256",
              "name": "playerMana",
              "type": "uint256"
            },
            {
              "internalType": "uint256",
              "name": "playerHealth",
              "type": "uint256"
            },
            {
              "internalType": "bool",
              "name": "inBattle",
              "type": "bool"
            }
          ],
          "internalType": "struct NeonWarriors.Player",
          "name": "",
          "type": "tuple"
        }
      ],
      "stateMutability": "view",
      "type": "function"
    },
    {
      "inputs": [
        {
          "internalType": "address",
          "name": "addr",
          "type": "address"
        }
      ],
      "name": "getPlayerToken",
      "outputs": [
        {
          "components": [
            {
              "internalType": "string",
              "name": "name",
              "type": "string"
            },
            {
              "internalType": "uint256",
              "name": "id",
              "type": "uint256"
            },
            {
              "internalType": "uint256",
              "name": "attackStrength",
              "type": "uint256"
            },
            {
              "internalType": "uint256",
              "name": "defenseStrength",
              "type": "uint256"
            }
          ],
          "internalType": "struct NeonWarriors.GameToken",
          "name": "",
          "type": "tuple"
        }
      ],
      "stateMutability": "view",
      "type": "function"
    },
    {
      "inputs": [],
      "name": "getTotalSupply",
      "outputs": [
        {
          "internalType": "uint256",
          "name": "",
          "type": "uint256"
        }
      ],
      "stateMutability": "view",
      "type": "function"
    },
    {
      "inputs": [
        {
          "internalType": "address",
          "name": "account",
          "type": "address"
        },
        {
          "internalType": "address",
          "name": "operator",
          "type": "address"
        }
      ],
      "name": "isApprovedForAll",
      "outputs": [
        {
          "internalType": "bool",
          "name": "",
          "type": "bool"
        }
      ],
      "stateMutability": "view",
      "type": "function"
    },
    {
      "inputs": [
        {
          "internalType": "string",
          "name": "_name",
          "type": "string"
        }
      ],
      "name": "isBattle",
      "outputs": [
        {
          "internalType": "bool",
          "name": "",
          "type": "bool"
        }
      ],
      "stateMutability": "view",
      "type": "function"
    },
    {
      "inputs": [
        {
          "internalType": "address",
          "name": "addr",
          "type": "address"
        }
      ],
      "name": "isPlayer",
      "outputs": [
        {
          "internalType": "bool",
          "name": "",
          "type": "bool"
        }
      ],
      "stateMutability": "view",
      "type": "function"
    },
    {
      "inputs": [
        {
          "internalType": "address",
          "name": "addr",
          "type": "address"
        }
      ],
      "name": "isPlayerToken",
      "outputs": [
        {
          "internalType": "bool",
          "name": "",
          "type": "bool"
        }
      ],
      "stateMutability": "view",
      "type": "function"
    },
    {
      "inputs": [
        {
          "internalType": "string",
          "name": "_name",
          "type": "string"
        }
      ],
      "name": "joinBattle",
      "outputs": [
        {
          "components": [
            {
              "internalType": "enum NeonWarriors.BattleStatus",
              "name": "battleStatus",
              "type": "uint8"
            },
            {
              "internalType": "bytes32",
              "name": "battleHash",
              "type": "bytes32"
            },
            {
              "internalType": "string",
              "name": "name",
              "type": "string"
            },
            {
              "internalType": "address[2]",
              "name": "players",
              "type": "address[2]"
            },
            {
              "internalType": "uint8[2]",
              "name": "moves",
              "type": "uint8[2]"
            },
            {
              "internalType": "address",
              "name": "winner",
              "type": "address"
            }
          ],
          "internalType": "struct NeonWarriors.Battle",
          "name": "",
          "type": "tuple"
        }
      ],
      "stateMutability": "nonpayable",
      "type": "function"
    },
    {
      "inputs": [],
      "name": "owner",
      "outputs": [
        {
          "internalType": "address",
          "name": "",
          "type": "address"
        }
      ],
      "stateMutability": "view",
      "type": "function"
    },
    {
      "inputs": [
        {
          "internalType": "address",
          "name": "",
          "type": "address"
        }
      ],
      "name": "playerInfo",
      "outputs": [
        {
          "internalType": "uint256",
          "name": "",
          "type": "uint256"
        }
      ],
      "stateMutability": "view",
      "type": "function"
    },
    {
      "inputs": [
        {
          "internalType": "address",
          "name": "",
          "type": "address"
        }
      ],
      "name": "playerTokenInfo",
      "outputs": [
        {
          "internalType": "uint256",
          "name": "",
          "type": "uint256"
        }
      ],
      "stateMutability": "view",
      "type": "function"
    },
    {
      "inputs": [
        {
          "internalType": "uint256",
          "name": "",
          "type": "uint256"
        }
      ],
      "name": "players",
      "outputs": [
        {
          "internalType": "address",
          "name": "playerAddress",
          "type": "address"
        },
        {
          "internalType": "string",
          "name": "playerName",
          "type": "string"
        },
        {
          "internalType": "uint256",
          "name": "playerMana",
          "type": "uint256"
        },
        {
          "internalType": "uint256",
          "name": "playerHealth",
          "type": "uint256"
        },
        {
          "internalType": "bool",
          "name": "inBattle",
          "type": "bool"
        }
      ],
      "stateMutability": "view",
      "type": "function"
    },
    {
      "inputs": [
        {
          "internalType": "string",
          "name": "_battleName",
          "type": "string"
        }
      ],
      "name": "quitBattle",
      "outputs": [],
      "stateMutability": "nonpayable",
      "type": "function"
    },
    {
      "inputs": [
        {
          "internalType": "string",
          "name": "_name",
          "type": "string"
        },
        {
          "internalType": "string",
          "name": "_gameTokenName",
          "type": "string"
        }
      ],
      "name": "registerPlayer",
      "outputs": [],
      "stateMutability": "nonpayable",
      "type": "function"
    },
    {
      "inputs": [],
      "name": "renounceOwnership",
      "outputs": [],
      "stateMutability": "nonpayable",
      "type": "function"
    },
    {
      "inputs": [
        {
          "internalType": "address",
          "name": "from",
          "type": "address"
        },
        {
          "internalType": "address",
          "name": "to",
          "type": "address"
        },
        {
          "internalType": "uint256[]",
          "name": "ids",
          "type": "uint256[]"
        },
        {
          "internalType": "uint256[]",
          "name": "amounts",
          "type": "uint256[]"
        },
        {
          "internalType": "bytes",
          "name": "data",
          "type": "bytes"
        }
      ],
      "name": "safeBatchTransferFrom",
      "outputs": [],
      "stateMutability": "nonpayable",
      "type": "function"
    },
    {
      "inputs": [
        {
          "internalType": "address",
          "name": "from",
          "type": "address"
        },
        {
          "internalType": "address",
          "name": "to",
          "type": "address"
        },
        {
          "internalType": "uint256",
          "name": "id",
          "type": "uint256"
        },
        {
          "internalType": "uint256",
          "name": "amount",
          "type": "uint256"
        },
        {
          "internalType": "bytes",
          "name": "data",
          "type": "bytes"
        }
      ],
      "name": "safeTransferFrom",
      "outputs": [],
      "stateMutability": "nonpayable",
      "type": "function"
    },
    {
      "inputs": [
        {
          "internalType": "address",
          "name": "operator",
          "type": "address"
        },
        {
          "internalType": "bool",
          "name": "approved",
          "type": "bool"
        }
      ],
      "name": "setApprovalForAll",
      "outputs": [],
      "stateMutability": "nonpayable",
      "type": "function"
    },
    {
      "inputs": [
        {
          "internalType": "string",
          "name": "newuri",
          "type": "string"
        }
      ],
      "name": "setURI",
      "outputs": [],
      "stateMutability": "nonpayable",
      "type": "function"
    },
    {
      "inputs": [
        {
          "internalType": "bytes4",
          "name": "interfaceId",
          "type": "bytes4"
        }
      ],
      "name": "supportsInterface",
      "outputs": [
        {
          "internalType": "bool",
          "name": "",
          "type": "bool"
        }
      ],
      "stateMutability": "view",
      "type": "function"
    },
    {
      "inputs": [
        {
          "internalType": "uint256",
          "name": "tokenId",
          "type": "uint256"
        }
      ],
      "name": "tokenURI",
      "outputs": [
        {
          "internalType": "string",
          "name": "",
          "type": "string"
        }
      ],
      "stateMutability": "view",
      "type": "function"
    },
    {
      "inputs": [],
      "name": "totalSupply",
      "outputs": [
        {
          "internalType": "uint256",
          "name": "",
          "type": "uint256"
        }
      ],
      "stateMutability": "view",
      "type": "function"
    },
    {
      "inputs": [
        {
          "internalType": "uint256",
          "name": "id",
          "type": "uint256"
        }
      ],
      "name": "totalSupply",
      "outputs": [
        {
          "internalType": "uint256",
          "name": "",
          "type": "uint256"
        }
      ],
      "stateMutability": "view",
      "type": "function"
    },
    {
      "inputs": [
        {
          "internalType": "address",
          "name": "newOwner",
          "type": "address"
        }
      ],
      "name": "transferOwnership",
      "outputs": [],
      "stateMutability": "nonpayable",
      "type": "function"
    },
    {
      "inputs": [
        {
          "internalType": "uint256",
          "name": "",
          "type": "uint256"
        }
      ],
      "name": "uri",
      "outputs": [
        {
          "internalType": "string",
          "name": "",
          "type": "string"
        }
      ],
      "stateMutability": "view",
      "type": "function"
    }
  ],
  "bytecode": "0x60806040523462000ab45762004fcd803803806200001d8162000af9565b92833981019060208183031262000ab4578051906001600160401b03821162000ab4570181601f8201121562000ab4578051906001600160401b0382116200073c5762000074601f8301601f191660200162000af9565b928284526020838301011162000ab45760005b82811062000a9e57600083850160200152835184906001600160401b0381116200073c57600254600181811c9116801562000a93575b60208210146200071b57601f811162000a51575b50806020601f8211600114620009d957600091620009cd575b508160011b916000199060031b1c1916176002555b60038054336001600160a01b0319821681179092556040516001600160a01b03909116907f8be0079c531659141344cd1fd0a4f28419497f9722a3daafe3b4186f6b6457e090600090a380516001600160401b0381116200073c57600554600181811c91168015620009c2575b60208210146200071b57601f81116200098b575b50602091601f8211600114620009215791819260009262000915575b50508160011b916000199060031b1c1916176005555b604051608081016001600160401b038111828210176200073c57604052620001d962000ad9565b6000815281526020810190600082526040810160008152606082019060008252600b54680100000000000000008110156200073c576001810180600b558110156200076857600b600052925180519460029490941b7f0175b7a638427703f0dbe7bb9bbf987a2551717b34e79f33b5b1008d1fa01db90193906001600160401b0386116200073c578454600181811c911680156200090a575b60208210146200071b57601f8111620008d4575b50602090601f871160011462000865579580916003969760009262000859575b50508160011b9160001990871b1c19161785555b5160018501555160028401555191015560405160a081016001600160401b038111828210176200073c5760405260008152620002f562000ad9565b600081526020820152600060408201526000606082015260006080820152600a5490680100000000000000008210156200073c576001820180600a558210156200076857600a6000528051600583027fc65a7bb8d6351c1cf70c95a316cc6a92839c986682d98bc35f958f4883f9d2a890810180546001600160a01b0319166001600160a01b039390931692909217909155602082015180519093906001600160401b0381116200073c5760016005830284010154600181811c911680156200084e575b60208210146200071b57601f811162000810575b506020601f82116001146200078a57918160059260049594608097986000926200077e575b50508160011b916000199060031b1c1916176001838302850101555b60408601516002838302850101556060860151600383830285010155020101910151151560ff801983541691161790556200044862000ab9565b60008152600060208201526200045d62000ab9565b60008082526020820152604051916001600160401b0360c08401908111908411176200073c5760c0830160405260008352600060208401526200049f62000ad9565b60008152604084015260608301526080820152600060a0820152600c5490680100000000000000008210156200073c576001820180600c558210156200076857600c60005280517fdf6966c971051c3d54ec59162606531493a51404a002842f56009d7e5cf4a8c79060038110156200075257600784028201805460ff191660ff929092169190911781556020830151600182015560408301518051600290920191906001600160401b0382116200073c57825490600182811c9216801562000731575b60208310146200071b5781601f849311620006d9575b50602090601f83116001146200066e5760009262000662575b50508160011b916000199060031b1c19161790555b606082015160005b600281106200063c575050608082015192600093845b6002811062000614576007830284016005810187905560a086015160069190910180546001600160a01b0319166001600160a01b0392909216919091179055604051614474908162000b398239f35b9094602060019160ff885116908460031b60ff811b9283911b169119161796019101620005c5565b81516001600160a01b0316600360078702850183010155602090910190600101620005af565b01519050868062000592565b6000858152602081209350601f198516905b818110620006c05750908460019594939210620006a6575b505050811b019055620005a7565b015160001960f88460031b161c1916905586808062000698565b9293602060018192878601518155019501930162000680565b6200070990856000526020600020601f850160051c8101916020861062000710575b601f0160051c019062000b1f565b8762000579565b9091508190620006fb565b634e487b7160e01b600052602260045260246000fd5b91607f169162000563565b634e487b7160e01b600052604160045260246000fd5b634e487b7160e01b600052602160045260246000fd5b634e487b7160e01b600052603260045260246000fd5b015190508880620003f2565b60016005840285010160005260206000209560005b601f1984168110620007f7575082608096976004969593600193600596601f19811610620007dd575b505050811b016001838302850101556200040e565b015160001960f88460031b161c19169055888080620007c8565b828201518855600190970196602092830192016200079f565b62000847906001600585028601016000526020600020601f840160051c810191602085106200071057601f0160051c019062000b1f565b85620003cd565b90607f1690620003b9565b015190508780620002a6565b90601f198716918660005260206000209260005b818110620008bb57509160019391896003999a9410620008a2575b505050811b018555620002ba565b015160001983891b60f8161c1916905587808062000894565b9293602060018192878601518155019501930162000879565b6200090390866000526020600020601f890160051c81019160208a106200071057601f0160051c019062000b1f565b8662000286565b90607f169062000272565b0151905082806200019c565b601f19821692600560005260206000209160005b858110620009725750836001951062000958575b505050811b01600555620001b2565b015160001960f88460031b161c1916905582808062000949565b9192602060018192868501518155019401920162000935565b620009bb9060056000526020600020601f840160051c810191602085106200071057601f0160051c019062000b1f565b8262000180565b90607f16906200016c565b905082015183620000ea565b6002600090815260008051602062004fad8339815191529250601f198416905b81811062000a385750908360019493921062000a1e575b5050811b01600255620000ff565b84015160001960f88460031b161c19169055838062000a10565b91926020600181928689015181550194019201620009f9565b600260005262000a8c9060008051602062004fad833981519152601f840160051c810191602085106200071057601f0160051c019062000b1f565b82620000d1565b90607f1690620000bd565b8060208092840101518282870101520162000087565b600080fd5b60408051919082016001600160401b038111838210176200073c57604052565b60405190602082016001600160401b038111838210176200073c57604052565b6040519190601f01601f191682016001600160401b038111838210176200073c57604052565b81811062000b2b575050565b6000815560010162000b1f56fe6080604052600436101561001257600080fd5b60003560e01c8062fdd58e14612e05578063015a379214612d1c57806301ffc9a714612cae57806302fe530514612b8757806309c95e1014612b645780630b8a648714612b485780630daea2cd14612b2c5780630e89341c14612a7b57806310898e4c14612a435780631107ae3d14612a0957806316801d17146129bf57806318160ddd146109e35780632711162e146129855780632ca04522146128165780632eb2c2d6146123d55780633835e2b5146123795780634b1146911461233f5780634e1273f4146121a15780634f558e79146121735780635c12cd4b1461213b5780635c93fc3d14612052578063606d2e9614611fcb5780636c0360eb14611ee9578063715018a614611e87578063845f433b14611b965780638c03049914611b7a5780638da5cb5b14611b51578063996d7bea14611a7e5780639b09cc8714611a285780639ec40aa3146119f0578063a1b4f57c146117ec578063a22cb465146116ff578063ba27495614610b05578063bb4bb9be14610ae9578063bd85b03914610abd578063bf034b6914610a2e578063bf103a4d14610a01578063c4e41b22146109e3578063c82a7793146109c7578063c87b56dd146108bb578063e985e9c514610865578063ecb3269014610849578063efa1c48214610760578063f242432a14610397578063f2fde38b146102cb578063f71d96cb146102415763fbeb45951461022057600080fd5b3461023c57600036600319011261023c57602060405160048152f35b600080fd5b3461023c57602036600319011261023c57600435600a5481101561023c57600a6000526005602060002091020160018060a01b03815416610284600183016131d1565b9160028101549060ff6004600383015492015416906102b5604051958695865260a0602087015260a0860190612e83565b9260408501526060840152151560808301520390f35b3461023c57602036600319011261023c576102e4612e34565b6102ec6132b5565b6001600160a01b0390811690811561034357600380546001600160a01b03198116841790915560405160009390929091167f8be0079c531659141344cd1fd0a4f28419497f9722a3daafe3b4186f6b6457e08484a3f35b60405162461bcd60e51b815260206004820152602660248201527f4f776e61626c653a206e6577206f776e657220697320746865207a65726f206160448201526564647265737360d01b6064820152608490fd5b3461023c5760a036600319011261023c576103b0612e34565b6103b8612e4a565b90608480356001600160401b03811161023c576103d9903690600401612f84565b6001600160a01b03919083831633148015610735575b6103f8906133c2565b828516156104068115613426565b610411604435613639565b61041c606435613639565b91858716156106d5575b610615575b5050604435600052602094600086526040600020848616600052865260406000205461045b606435821015613480565b60443560005260008752604060002085871660005287526064359003604060002055604435600052600086526040600020848216600052865260406000206104a660643582546134df565b905560405160443581526064358782015284821690858716907fc3d58168c5ae7397731d063d5bbf3d657854427343f4c083240f7aacaa2d0f6260403392a4803b6104ee575b005b60a06000610538958895604051978896879586938563f23a6e6160e01b9d8e87523360048801521660248601526044356044860152606435606486015284015260a4830190612e83565b0393165af1600091816105e6575b506105bc575050600190610558613555565b6308c379a014610587575b5061056a57005b60405162461bcd60e51b815280610583600482016135e4565b0390fd5b61058f613573565b908161059b5750610563565b61058360405192839262461bcd60e51b845260048401526024830190612e83565b6001600160e01b0319161490506104ec5760405162461bcd60e51b8152806105836004820161350c565b610607919250843d861161060e575b6105ff8183612f48565b8101906134ec565b9084610546565b503d6105f5565b92959194909360005b84518110156106c65761063181866133ae565b519061063d81886133ae565b518260005260046020526040600020548181106106715761066c93600052600460205203604060002055613392565b61061e565b60405162461bcd60e51b815260206004820152602860248201527f455243313135353a206275726e20616d6f756e74206578636565647320746f74604482015267616c537570706c7960c01b60648201528b90fd5b5093509390949150858061042b565b959260009794919592975b865181101561072757806106f7610722928b6133ae565b51610702828a6133ae565b51600052600460205261071b60406000209182546134df565b9055613392565b6106e0565b509295969194909396610426565b5082841660005260016020526040600020336000526020526103f860ff6040600020541690506103ef565b3461023c57600036600319011261023c57600a5461077d81613087565b9061078b6040519283612f48565b808252600a6000908152602091828401917fc65a7bb8d6351c1cf70c95a316cc6a92839c986682d98bc35f958f4883f9d2a8835b8383106108265750505050604051918083019381845251809452604083019360408160051b85010192916000955b8287106107fa5785850386f35b909192938280610816600193603f198a82030186528851613130565b96019201960195929190926107ed565b600586600192610838859a999a613684565b8152019201920191909594956107bf565b3461023c57600036600319011261023c57602060405160018152f35b3461023c57604036600319011261023c5761087e612e34565b610886612e4a565b9060018060a01b03809116600052600160205260406000209116600052602052602060ff604060002054166040519015158152f35b3461023c5760208060031936011261023c576108d860043561435b565b906040519182600091600554926108ee84613197565b6001948686821691826000146109a2575050600114610960575b509264173539b7b760d91b6006939285602f60f81b6109489752610934825180938a8785019101612e60565b019182015203601919810185520183612f48565b61095c604051928284938452830190612e83565b0390f35b8591506005600052816000206000905b82821061098a57505083010164173539b7b760d91b610908565b80548983018501528895508793909101908601610970565b60ff1916818701528215159092028501909101915064173539b7b760d91b9050610908565b3461023c57600036600319011261023c57602060405160028152f35b3461023c57600036600319011261023c576020600654604051908152f35b3461023c57602036600319011261023c576020610a24610a1f612e34565b613774565b6040519015158152f35b3461023c57602036600319011261023c57600435600b5481101561023c57600b600052610aa99060021b7f0175b7a638427703f0dbe7bb9bbf987a2551717b34e79f33b5b1008d1fa01db901610a83816131d1565b906001810154906003600282015491015490604051948594608086526080860190612e83565b926020850152604084015260608301520390f35b3461023c57602036600319011261023c5760043560005260046020526020604060002054604051908152f35b3461023c57600036600319011261023c57602060405160008152f35b3461023c57604036600319011261023c5760043560ff9081811680910361023c576024356001600160401b03811161023c57610b45903690600401612f84565b90610b4f826139b2565b805160038110156116745760010361168a578051600381101561167457600214611634576060810190815160018060a01b03815116331490811561161d575b50156115d857608001518151516001600160a01b031633036115d0576000905b600286831610156114c857611fe0869260051b1601511661158b5751516001600160a01b031633036115845760005b6001821480801561157a575b15611535571561152e5760036040610c00336136d4565b015110155b156114de5760405191610c3684519360208181880196610c2681838a612e60565b8101600981520301902054613178565b5090600286841610156114c857601f6005610c6b93600786831c160101931683549060031b60ff811b9283911b169119161790565b90556080610c78836139b2565b0180515184166114c0578360005b166002039084821161104257516020015184166114b757838060005b1691160383811161104257831690600182036114ac57610cd06001915b604051809281928751928391612e60565b8101039020901515907f54b82b77e7ae55a8e6c9e89deba70c7191dea2a3b08ae647b380e9f981d6a0f86000604051a315610d0757005b610d10906139b2565b90606082015160018060a01b038151163314908115611495575b501561143c57608082015181808251161515918261142c575b5050156113dd5760018060a01b036060830151511660005260076020526040600020549080608084015151166060610d8660018060a01b038287015151166136d4565b0151606085015151604090610da3906001600160a01b03166137f3565b015160608681015151919291610dc1906001600160a01b03166137f3565b01519260405195610dd187612f12565b8652602086015260408501526060840152608083015260018060a01b0360206060850151015116600052600760205260406000205490602060808501510151166060610e2b60018060a01b036020838801510151166136d4565b0151606085015160200151604090610e4b906001600160a01b03166137f3565b015160608681015160200151919291610e6c906001600160a01b03166137f3565b01519260405194610e7c86612f12565b8552602085015260408401526060830152608082015260405191610e9f83612edc565b6000835260006020840152826020820151600181148080916113cf575b15611129575050506060810151604083015111611078575050606082015151610eef9083906001600160a01b03166141f8565b505b604051906000825b600282106110585750505060407fc6bf860cbc15f7020f73993a671f01bbb1831a8a7a12c126ca735eb632e7577591a160006080820151526000602060808301510152610f4a81604081015161418e565b606081015151610f62906001600160a01b0316613f77565b60018060a01b03606083015151166000526008602052806002610f89604060002054613277565b500155600a03600a81116110425760018060a01b036060830151511660005260086020526003610fbd604060002054613277565b500155606081015160200151610fdb906001600160a01b0316613f77565b60018060a01b03602060608401510151166000526008602052806002611005604060002054613277565b500155600a0390600a8211611042576020606060018060a01b039201510151166000526008602052600361103d604060002054613277565b500155005b634e487b7160e01b600052601160045260246000fd5b82516001600160a01b031681526020928301926001929092019101610ef9565b6060820151604082015181106110ae575050506060820151602001516110a89083906001600160a01b03166141f8565b50610ef1565b6002929350906110ef916110d160036110c78451613296565b5001918254613f6a565b905560608101516110e760036110c78751613296565b905551613296565b50018054600219928382019291831161104257600292611110925551613296565b5001805491820191821161104257556060810151610ef1565b806113c1575b15611202575061114860408401516080850151906134df565b606083015190929091838310611177575050506060840151516110a892508491506001600160a01b03166141f8565b6002936111aa93806080880151116000146111df5750505060408401515b60036111a18651613296565b50015551613296565b50018054600219810192908311611042576002926111c9925551613296565b5001805490600382018092116110425755610ef1565b6111e891613f6a565b6060880151602001516001600160a01b0316909152611195565b60021480806113b3575b1561134f575061122560408301516080840151906134df565b91600f606460018060a01b03602060608a01510151166040516112788161126a60208201944286909160349282526001600160601b03199060601b1660208201520190565b03601f198101835282612f48565b5190200610156113445760608401518060001904600211811515166110425760011b915b8383106112c5575050506060840151602001516110a892508491506001600160a01b03166141f8565b6002936112ef93806080850151116000146113245750505060408101515b60036111a18351613296565b5001805491600383018093116110425760029261130d925551613296565b500180546002198101919082116110425755610ef1565b61132d91613f6a565b6060880151516001600160a01b03169091526112e3565b60608401519161129c565b9050806113a5575b611363575b5050610ef1565b61136f60029151613296565b5001805491600383018093116110425760029261138d925551613296565b5001805490600382018092116110425755828061135c565b506002602083015114611357565b50600160208501511461120c565b50600260208501511461112f565b506001602086015114610ebc565b60405162461bcd60e51b815260206004820152602160248201527f506c6179657273207374696c6c206e65656420746f206d616b652061206d6f766044820152606560f81b6064820152608490fd5b6020015116151590508184610d43565b60405162461bcd60e51b815260206004820152602b60248201527f4f6e6c7920706c617965727320696e207468697320626174746c652063616e2060448201526a6d616b652061206d6f766560a81b6064820152608490fd5b602001516001600160a01b03163314905083610d2a565b610cd0600091610cbf565b83806001610ca2565b836001610c86565b634e487b7160e01b600052603260045260246000fd5b60405162461bcd60e51b815260206004820152602260248201527f4d616e61206e6f742073756666696369656e7420666f722061747461636b696e604482015261672160f01b6064820152608490fd5b6001610c05565b60405162461bcd60e51b815260206004820152601f60248201527f43686f6963652073686f756c64206265206569746865722031206f72203221006044820152606490fd5b5060028314610be9565b6001610bdd565b60405162461bcd60e51b815260206004820152601d60248201527f596f75206861766520616c7265616479206d6164652061206d6f7665210000006044820152606490fd5b600190610bae565b60405162461bcd60e51b815260206004820152601a60248201527f596f7520617265206e6f7420696e207468697320626174746c650000000000006044820152606490fd5b602001516001600160a01b03163314905086610b8e565b60405162461bcd60e51b815260206004820152601860248201527710985d1d1b19481a185cc8185b1c9958591e48195b99195960421b6044820152606490fd5b634e487b7160e01b600052602160045260246000fd5b60405162461bcd60e51b815260206004820152604160248201527f426174746c65206e6f7420737461727465642e20506c656173652074656c6c2060448201527f616e6f7468657220706c6179657220746f206a6f696e2074686520626174746c6064820152606560f81b608482015260a490fd5b3461023c57604036600319011261023c57611718612e34565b602435908115159081830361023c576001600160a01b031691338314611795576117679033600052600160205260406000208460005260205260406000209060ff801983541691151516179055565b6040519081527f17307eab39ab6107e8899845ad3d59bd9653f200f220920489ca2b5937696c3160203392a3005b60405162461bcd60e51b815260206004820152602960248201527f455243313135353a2073657474696e6720617070726f76616c20737461747573604482015268103337b91039b2b63360b91b6064820152608490fd5b3461023c5760208060031936011261023c576004356001600160401b03811161023c5761181d903690600401612f84565b906118266138a3565b50611830826139b2565b9182516003811015611674576119b1576060830180515190916001600160a01b039182163314611962576080611865336136d4565b0151611929578461187f916001825233868651015261418e565b808251511660005260078352600461189b604060002054613296565b500160ff19906001828254161790558184845101511660005260078452600160046118ca604060002054613296565b5001918254161790556040840151915151167f024187b16c217a79f8d8e6252b542ec6e278fa91304acd9cfd866f2bbf00bd0860405184815280611912339587830190612e83565b0390a361095c604051928284938452830190612fd8565b60405162461bcd60e51b8152600481018590526011602482015270416c726561647920696e20626174746c6560781b6044820152606490fd5b60405162461bcd60e51b815260048101859052602160248201527f4f6e6c7920706c617965722074776f2063616e206a6f696e206120626174746c6044820152606560f81b6064820152608490fd5b60405162461bcd60e51b8152600481018390526017602482015276426174746c6520616c726561647920737461727465642160481b6044820152606490fd5b3461023c57602036600319011261023c576004356001600160401b03811161023c57611a236104ec913690600401612f84565b613a8e565b3461023c57602036600319011261023c576004356001600160401b03811161023c576080611a64611a5f6040933690600401612f84565b6139b2565b015160ff6020818351169201511682519182526020820152f35b3461023c57602036600319011261023c576004356001600160401b03811161023c57611a5f611ab1913690600401612f84565b6060810190815160018060a01b0390818151163314908115611b41575b5015611afc578251518116338103611af0575060206104ec93510151166141f8565b90506104ec92506141f8565b60405162461bcd60e51b815260206004820152601b60248201527f596f7520617265206e6f7420696e207468697320626174746c652100000000006044820152606490fd5b6020015182163314905084611ace565b3461023c57600036600319011261023c576003546040516001600160a01b039091168152602090f35b3461023c57600036600319011261023c57602060405160058152f35b3461023c57604036600319011261023c576001600160401b0360043581811161023c57611bc7903690600401612f84565b60243582811161023c57611bdf903690600401612f84565b611be83361365e565b611e4657600a54604051611bfb81612f12565b33815260209485820185815260408301600a8152606084019160198352608085019360008552600160401b871015611e1a5760018701600a55611c3d87613296565b969096611e30575186546001600160a01b0319166001600160a01b03919091161786559051805160018701929091908211611e1a57611c7c8354613197565b8b601f8211611dde575b50508a90601f8311600114611d425794611d0c94611d1f989484600495611d329d9a957f81ef79d1cda814a60c0fc60792e648a06d9c6bae67176346d1cc8b63030bfccd9f9d9a600092611d37575b50508160011b916000199060031b1c19161790555b51600285015551600384015551151591019060ff801983541691151516179055565b3360005260078752604060002055613a8e565b6040519182918583523395830190612e83565b0390a2005b015190503880611cd5565b60008481528c8120929190601f198516908e5b828210611dc657505094600185611d329d9a957f81ef79d1cda814a60c0fc60792e648a06d9c6bae67176346d1cc8b63030bfccd9f9d9a95611d0c9a95600499611d1f9f9b10611dad575b505050811b019055611cea565b015160001960f88460031b161c19169055388080611da0565b80600186978294978701518155019601940190611d55565b611e0991856000528160002090601f860160051c8201928610611e10575b601f0160051c0190613a2b565b8b8b611c86565b9091508190611dfc565b634e487b7160e01b600052604160045260246000fd5b634e487b7160e01b600052600060045260246000fd5b60405162461bcd60e51b8152602060048201526019602482015278141b185e595c88185b1c9958591e481c9959da5cdd195c9959603a1b6044820152606490fd5b3461023c57600036600319011261023c57611ea06132b5565b600380546001600160a01b0319811690915560405160009182906001600160a01b03167f8be0079c531659141344cd1fd0a4f28419497f9722a3daafe3b4186f6b6457e08284a3f35b3461023c57600036600319011261023c57604051600090600554611f0c81613197565b808352600191808316908115611fa35750600114611f49575b61095c83611f3581870382612f48565b604051918291602083526020830190612e83565b6005600090815260209450917f036b6384b5eca791c62761152d0c79bb0604c104a5fb6f4eb0703f3154bb3db05b828410611f9057505050810190910190611f3581611f25565b8054858501870152928501928101611f77565b61095c9550611f3593506020915091849260ff191682840152151560051b8201019350611f25565b3461023c57602036600319011261023c57600435600c5481101561023c5761203290600c6000526007602060002091020160ff81541690612048600182015491612017600282016131d1565b90600660018060a01b03910154169260405195868096612fcb565b6020850152608060408501526080840190612e83565b9060608301520390f35b3461023c57600036600319011261023c57600c5461206f81613087565b9061207d6040519283612f48565b808252600c6000908152602091828401917fdf6966c971051c3d54ec59162606531493a51404a002842f56009d7e5cf4a8c7835b8383106121185750505050604051918083019381845251809452604083019360408160051b85010192916000955b8287106120ec5785850386f35b909192938280612108600193603f198a82030186528851612fd8565b96019201960195929190926120df565b60078660019261212a859a999a6138f2565b8152019201920191909594956120b1565b3461023c57602036600319011261023c5761095c61215f61215a612e34565b6136d4565b604051918291602083526020830190613130565b3461023c57602036600319011261023c57600435600052600460205260206040600020541515604051908152f35b3461023c57604036600319011261023c576004356001600160401b0380821161023c573660238301121561023c578160040135906121de82613087565b926121ec6040519485612f48565b82845260209260248486019160051b8301019136831161023c57602401905b8282106123205750505060243590811161023c5761222d90369060040161309e565b82518151036122c95782519261224284613087565b936122506040519586612f48565b80855261225f601f1991613087565b01368486013760005b81518110156122b2576122ad9061229d6001600160a01b0361228a83866133ae565b511661229683876133ae565b519061330d565b6122a782886133ae565b52613392565b612268565b50505061095c6040519282849384528301906130fc565b60405162461bcd60e51b815260048101839052602960248201527f455243313135353a206163636f756e747320616e6420696473206c656e677468604482015268040dad2e6dac2e8c6d60bb1b6064820152608490fd5b81356001600160a01b038116810361023c57815290840190840161220b565b3461023c57602036600319011261023c576001600160a01b03612360612e34565b1660005260076020526020604060002054604051908152f35b3461023c57602036600319011261023c576004356001600160401b03811161023c576123c260206123af81933690600401612f84565b8160405193828580945193849201612e60565b8101600981520301902054604051908152f35b3461023c5760031960a03682011261023c576123ef612e34565b906123f8612e4a565b906001600160401b036044803582811161023c5761241a90369060040161309e565b90606490813584811161023c5761243590369060040161309e565b94608494853590811161023c57612450903690600401612f84565b6001600160a01b0398891698909190338a1480156127ed575b612472906133c2565b855188510361279a57881695861561248a8115613426565b8a15612757575b612692575b60005b865181101561252957806124b061252492896133ae565b518c6124bc838d6133ae565b51918060005282602092600084526040600020816000528452604060002054906124e883831015613480565b8360005260008552604060002090600052845203604060002055600052600081526040600020908b6000525261071b60406000209182546134df565b612499565b5090919293968998878a604051604081527f4a39dc06d4c0dbc64b70af90fd698a233a518aa5d07e595d983b8c0526c8f7fb612568604083018c6130fc565b9180830360208201528061257d3394896130fc565b0390a43b61258757005b604051978896879663bc197c8160e01b9b8c89523360048a01526024890152870160a0905260a487016125b9916130fc565b908487830301908701526125cc916130fc565b9184830301908401526125de91612e83565b03815a602094600091f160009181612672575b5061264a5750506001612602613555565b6308c379a014612613575b61056a57005b61261b613573565b80612626575061260d565b60405162461bcd60e51b815260206004820152908190610583906024830190612e83565b6001600160e01b031916146104ec5760405162461bcd60e51b8152806105836004820161350c565b61268b91925060203d811161060e576105ff8183612f48565b90836125f1565b96949398929590979160005b8551811015612748576126b181876133ae565b516126bc82896133ae565b519080600052602060048152604060002054918383106126f5576126f0949392916004916000525203604060002055613392565b61269e565b508b9067616c537570706c7960c01b8f7f455243313135353a206275726e20616d6f756e74206578636565647320746f748e6040519462461bcd60e51b8652600486015260286024860152840152820152fd5b50919790959298939496612496565b98959996949392919060005b8b5181101561278b57808c6107028261277f612786958f6133ae565b51926133ae565b612763565b50909192939496999598612491565b60405162461bcd60e51b815260206004820152602860248201527f455243313135353a2069647320616e6420616d6f756e7473206c656e6774682081860152670dad2e6dac2e8c6d60c31b818701528790fd5b5089600052600160205260406000203360005260205261247260ff604060002054169050612469565b3461023c5760208060031936011261023c576004356001600160401b03811161023c57612847903690600401612f84565b906128506138a3565b5061286261285d3361365e565b613a42565b61286b82613872565b61294857806040518181019082825261288b8161126a6040820188612e83565b5190209260405161289b81612edc565b338152600083820152604051906128b182612edc565b60008252600084830152604051956128c887612ef7565b600087528487015282604087015260608601526080850152600060a0850152612903600c549283928160405193828580945193849201612e60565b8101600981520301902055600160401b811015611e1a578261292e8260016129349401600c55613178565b90613fbe565b61095c604051928284938452830190612fd8565b6064906040519062461bcd60e51b825260048201526016602482015275426174746c6520616c7265616479206578697374732160501b6044820152fd5b3461023c57602036600319011261023c576001600160a01b036129a6612e34565b1660005260086020526020604060002054604051908152f35b3461023c57602036600319011261023c576004356001600160401b03811161023c576129f5611a5f61095c923690600401612f84565b604051918291602083526020830190612fd8565b3461023c57602036600319011261023c576004356001600160401b03811161023c57610a24612a3e6020923690600401612f84565b613872565b3461023c57602036600319011261023c5761095c612a67612a62612e34565b6137f3565b604051918291602083526020830190612ea8565b3461023c5760208060031936011261023c576040519060008260025491612aa183613197565b92838352600190858282169182600014612b0c575050600114612acc575b5061094892500383612f48565b849150600260005281600020906000915b858310612af4575050610948935082010185612abf565b80548389018501528794508693909201918101612add565b60ff19168582015261094895151560051b8501019250879150612abf9050565b3461023c57600036600319011261023c576020604051600a8152f35b3461023c57600036600319011261023c57602060405160038152f35b3461023c57602036600319011261023c576020610a24612b82612e34565b61365e565b3461023c5760208060031936011261023c576001600160401b0360043581811161023c57612bb9903690600401612f84565b91612bc26132b5565b8251918211611e1a57612bd6600254613197565b601f8111612c7d575b5080601f8311600114612c1957508192600092612c0e575b50508160011b916000199060031b1c191617600255005b015190508280612bf7565b90601f19831693600260005282600020926000905b868210612c655750508360019510612c4c575b505050811b01600255005b015160001960f88460031b161c19169055828080612c41565b80600185968294968601518155019501930190612c2e565b612ca890600260005282600020601f850160051c810191848610611e1057601f0160051c0190613a2b565b83612bdf565b3461023c57602036600319011261023c5760043563ffffffff60e01b811680910361023c57602090636cdb3d1360e11b8114908115612d0b575b8115612cfa575b506040519015158152f35b6301ffc9a760e01b14905082612cef565b6303a24d0760e21b81149150612ce8565b3461023c57600036600319011261023c57600b54612d3981613087565b90612d476040519283612f48565b808252600b6000908152602091828401917f0175b7a638427703f0dbe7bb9bbf987a2551717b34e79f33b5b1008d1fa01db9835b838310612de25750505050604051918083019381845251809452604083019360408160051b85010192916000955b828710612db65785850386f35b909192938280612dd2600193603f198a82030186528851612ea8565b9601920196019592919092612da9565b600486600192612df4859a999a6137ba565b815201920192019190959495612d7b565b3461023c57604036600319011261023c576020612e2c612e23612e34565b6024359061330d565b604051908152f35b600435906001600160a01b038216820361023c57565b602435906001600160a01b038216820361023c57565b60005b838110612e735750506000910152565b8181015183820152602001612e63565b90602091612e9c81518092818552858086019101612e60565b601f01601f1916010190565b90606080612ebf8451608085526080850190612e83565b936020810151602085015260408101516040850152015191015290565b604081019081106001600160401b03821117611e1a57604052565b60c081019081106001600160401b03821117611e1a57604052565b60a081019081106001600160401b03821117611e1a57604052565b608081019081106001600160401b03821117611e1a57604052565b90601f801991011681019081106001600160401b03821117611e1a57604052565b6001600160401b038111611e1a57601f01601f191660200190565b81601f8201121561023c57803590612f9b82612f69565b92612fa96040519485612f48565b8284526020838301011161023c57816000926020809301838601378301015290565b9060038210156116745752565b90612fe4818351612fcb565b60209182810151838301526130086040820151610100806040860152840190612e83565b926060820151606084016000905b83600283106130695750505050608082015190600060a085015b60028210613051575050505060e09060a0600180821b039101511691015290565b828060019260ff875116815201940191019092613030565b83516001600160a01b03168252928301926001929092019101613016565b6001600160401b038111611e1a5760051b60200190565b81601f8201121561023c578035916130b583613087565b926130c36040519485612f48565b808452602092838086019260051b82010192831161023c578301905b8282106130ed575050505090565b813581529083019083016130df565b90815180825260208080930193019160005b82811061311c575050505090565b83518552938101939281019260010161310e565b9060018060a01b038251168152608080613159602085015160a0602086015260a0850190612e83565b9360408101516040850152606081015160608501520151151591015290565b600c548110156114c857600c6000526007602060002091020190600090565b90600182811c921680156131c7575b60208310146131b157565b634e487b7160e01b600052602260045260246000fd5b91607f16916131a6565b90604051918260008254926131e584613197565b9081845260019485811690816000146132545750600114613211575b505061320f92500383612f48565b565b9093915060005260209081600020936000915b81831061323c57505061320f93508201013880613201565b85548884018501529485019487945091830191613224565b91505061320f94506020925060ff191682840152151560051b8201013880613201565b600b548110156114c857600b60005260206000209060021b0190600090565b600a548110156114c857600a6000526005602060002091020190600090565b6003546001600160a01b031633036132c957565b606460405162461bcd60e51b815260206004820152602060248201527f4f776e61626c653a2063616c6c6572206973206e6f7420746865206f776e65726044820152fd5b6001600160a01b031690811561333a57600052600060205260406000209060005260205260406000205490565b60405162461bcd60e51b815260206004820152602a60248201527f455243313135353a2061646472657373207a65726f206973206e6f742061207660448201526930b634b21037bbb732b960b11b6064820152608490fd5b60001981146110425760010190565b8051156114c85760200190565b80518210156114c85760209160051b010190565b156133c957565b60405162461bcd60e51b815260206004820152602f60248201527f455243313135353a2063616c6c6572206973206e6f7420746f6b656e206f776e60448201526e195c881b9bdc88185c1c1c9bdd9959608a1b6064820152608490fd5b1561342d57565b60405162461bcd60e51b815260206004820152602560248201527f455243313135353a207472616e7366657220746f20746865207a65726f206164604482015264647265737360d81b6064820152608490fd5b1561348757565b60405162461bcd60e51b815260206004820152602a60248201527f455243313135353a20696e73756666696369656e742062616c616e636520666f60448201526939103a3930b739b332b960b11b6064820152608490fd5b9190820180921161104257565b9081602091031261023c57516001600160e01b03198116810361023c5790565b60809060208152602860208201527f455243313135353a204552433131353552656365697665722072656a656374656040820152676420746f6b656e7360c01b60608201520190565b60009060033d1161356257565b905060046000803e60005160e01c90565b600060443d106135d057604051600319913d83016004833e81516001600160401b03918282113d6024840111176135d3578184019485519384116135db573d850101602084870101116135d357506135d092910160200190612f48565b90565b949350505050565b50949350505050565b60809060208152603460208201527f455243313135353a207472616e7366657220746f206e6f6e20455243313135356040820152732932b1b2b4bb32b91034b6b83632b6b2b73a32b960611b60608201520190565b6040519061364682612edc565b600182526020368184013761365a826133a1565b5290565b6001600160a01b031660009081526007602052604090205461367f57600090565b600190565b9060405161369181612f12565b608060ff6004839560018060a01b0381541685526136b1600182016131d1565b602086015260028101546040860152600381015460608601520154161515910152565b60806040516136e281612f12565b60009181838093526060602082015282604082015282606082015201526137088261365e565b15613737576001600160a01b039091168152600760205260409020546135d09061373190613296565b50613684565b60405162461bcd60e51b8152602060048201526015602482015274506c6179657220646f65736e27742065786973742160581b6044820152606490fd5b6001600160a01b031660009081526008602052604090205461367f57600090565b604051906137a282612f2d565b60006060838181528260208201528260408201520152565b906040516137c781612f2d565b6060600382946137d6816131d1565b845260018101546020850152600281015460408501520154910152565b6137fb613795565b5061380581613774565b156138315760018060a01b031660005260086020526135d061382b604060002054613277565b506137ba565b60405162461bcd60e51b815260206004820152601960248201527847616d6520746f6b656e20646f65736e27742065786973742160381b6044820152606490fd5b602061388b918160405193828580945193849201612e60565b81016009815203019020541560001461367f57600090565b604090600060a083516138b581612ef7565b809483825283602083015260608183015280516138d181612edc565b8136823760608301528051906138e682612edc565b36823760808201520152565b906040516138ff81612ef7565b809260ff8154166003811015611674578252600180820154906020918285015260029061392d8285016131d1565b60408601526040519182600386016000915b838310613996575050505050908161395960a09493612edc565b60608501526040519060ff6005840154818116845260081c169082015261397f81612edc565b6080840152600601546000196001831b0116910152565b81546001600160a01b031681529184019190840190860161393f565b6139ba6138a3565b506139c481613872565b156139ee576139e8610c2660206135d0938160405193828580945193849201612e60565b506138f2565b60405162461bcd60e51b8152602060048201526015602482015274426174746c6520646f65736e27742065786973742160581b6044820152606490fd5b818110613a36575050565b60008155600101613a2b565b15613a4957565b60405162461bcd60e51b815260206004820152601c60248201527f506c6561736520526567697374657220506c61796572204669727374000000006044820152606490fd5b6080613a99336136d4565b0151613f2d57613aab61285d3361365e565b613ab3613795565b50613abd33613f77565b80600a0390600a821161104257604090815193602090600660ff606484890189613b01334284909160349282526001600160601b03199060601b1660208201520190565b0399613b15601f199b8c8101835282612f48565b51902006160660ff8116908115613f19575b60ff9150855192613b3784612f2d565b83521695828201918783528581019185835260608201888152600b5493600160401b851015611e1a57600195868601600b55613b7286613277565b959095611e305751938451906001600160401b038211611e1a57613b968754613197565b601f8111613ee9575b508990601f8311600114613e8657508190600396600092613e7b575b505060001982871b1c191690881b1785555b518685015551600284015551910155336000526008835284600020558351613bf481612edc565b600381526203078360ec1b838201523315613e2d57613c1287613639565b82865191613c1f83612edc565b81835285368185013781613c32846133a1565b526000825b613de9575b5050505086600052600083528460002033600052835284600020805490838201809211611042575584518781528284820152600033917fc3d58168c5ae7397731d063d5bbf3d657854427343f4c083240f7aacaa2d0f62883392a4333b613ce1575b5050613cab600654613392565b60065582519485528401528201527fca8ab07e9ed17d119729fc652dd24df9d8430ca862dda4631925b5b4b99da36260603392a2565b8451838180613d1f63f23a6e6160e01b95868352336004840152600060248401528c604484015287606484015260a0608484015260a4830190612e83565b03816000335af160009181613dca575b50613da1575050613d3e613555565b6308c379a014613d6d575b613d55575b3880613c9e565b825162461bcd60e51b815280610583600482016135e4565b613d75613573565b80613d805750613d49565b82610583865192839262461bcd60e51b845260048401526024830190612e83565b6001600160e01b031916149050613d4e57825162461bcd60e51b8152806105836004820161350c565b613de2919250853d871161060e576105ff8183612f48565b9038613d2f565b8151811015613e285780613e00613e2292866133ae565b51613e0b82856133ae565b516000526004895261071b8b6000209182546134df565b82613c37565b613c3c565b845162461bcd60e51b815260048101849052602160248201527f455243313135353a206d696e7420746f20746865207a65726f206164647265736044820152607360f81b6064820152608490fd5b015190503880613bbb565b9082918a931690886000528b6000209160005b8d828210613ed3575050978360039910613ebb575b505050811b018555613bcd565b015160001983891b60f8161c19169055388080613eae565b838b015185558d96909401939283019201613e99565b613f1390886000528b600020601f850160051c8101918d8610611e1057601f0160051c0190613a2b565b38613b9f565b5060ff811461104257600160ff9101613b27565b60405162461bcd60e51b8152602060048201526015602482015274506c6179657220697320696e206120626174746c6560581b6044820152606490fd5b9190820391821161104257565b600a9060405160208101914483524260408301526001600160601b03199060601b16606082015260548152613fab81612f2d565b519020068015613fb85790565b50600590565b929190611e30578051926003808510156116745760ff1982541660ff80961617825560209081840151906001918285015560029081850160408701518051906001600160401b038211611e1a5781906140178454613197565b601f811161415e575b508790601f83116001146140fc576000926140f1575b505060001982851b1c191690851b1790555b606086015160005b8381106140d55750505090608085015191600093845b8281106140a5575050505050600582015560a09091015160069190910180546001600160a01b0319166001600160a01b03929092169190911790559050565b909192826140c98697848d85995116919060031b60ff811b9283911b169119161790565b96019493929101614066565b81516001600160a01b0316878201840155908501908401614050565b015190503880614036565b90879350601f1983169185600052896000209260005b8b8282106141485750508411614130575b505050811b019055614048565b015160001983871b60f8161c19169055388080614123565b8385015186558b97909501949384019301614112565b614188908560005289600020601f850160051c8101918b8610611e1057601f0160051c0190613a2b565b38614020565b9061419882613872565b156141bc5761292e610c26602061320f948160405193828580945193849201612e60565b60405162461bcd60e51b815260206004820152601460248201527310985d1d1b1948191bd95cdb89dd08195e1a5cdd60621b6044820152606490fd5b6142006138a3565b50815160038110156116745760021461431f576002825260018060a01b038091168060a08401527fae6e5eafb6cd1cb4b139e7a0b9140aa182ee7d50e99f50d660156f79212acbc0604084019261425885855161418e565b806060860181815151166000526007602052600a60026142de60406000205485602086510151166000526040600020549084846142bb600461429985613296565b50019360ff1994858154169055601960036142b383613296565b500155613296565b50015560046142c983613296565b5001908154169055601960036142b383613296565b500155518051821685810361431657506020015116935b51936143106040519283926020845216956020830190612e83565b0390a390565b915050936142f5565b60405162461bcd60e51b815260206004820152601460248201527310985d1d1b1948185b1c9958591e48195b99195960621b6044820152606490fd5b80156144205780816000925b61440c575061437582612f69565b916143836040519384612f48565b80835281601f1961439383612f69565b01916020923684870137905b6143a95750505090565b60001990808201908111611042578093600a808204809404811184151516611042576143db60ff928392860290613f6a565b166030019081116110425785518210156114c85760f81b6001600160f81b03191660001a908501830153918261439f565b91614418600a91613392565b920480614367565b5060405161442d81612edc565b60018152600360fc1b60208201529056fea26469706673582212209b6ee3212e47878a769d07788ebed6b08ca9237c2228e415ba774c361acfcc1b64736f6c63430008100033405787fa12a823e0f2b7631cc41b3ba8828b3321ca811111fa75cd3aa3bb5ace",
  "linkReferences": {},
  "deployedLinkReferences": {}
}